{
  "contractName": "DappToken",
  "abi": [
    {
      "constant": true,
      "inputs": [],
      "name": "totalSupply",
      "outputs": [
        {
          "name": "",
          "type": "uint256"
        }
      ],
      "payable": false,
      "stateMutability": "view",
      "type": "function",
      "signature": "0x18160ddd"
    },
    {
      "inputs": [],
      "payable": false,
      "stateMutability": "nonpayable",
      "type": "constructor",
      "signature": "constructor"
    }
  ],
  "bytecode": "0x608060405234801561001057600080fd5b50620f4240600081905550609e806100296000396000f3fe608060405260043610603f576000357c0100000000000000000000000000000000000000000000000000000000900463ffffffff16806318160ddd146044575b600080fd5b348015604f57600080fd5b506056606c565b6040518082815260200191505060405180910390f35b6000548156fea165627a7a723058208caedcde132bcd98e6b0f5bc5e2023372ea19b70df034ebdb2dec07a444af3ab0029",
  "source": "// for ERC20 Standard defination\r\n\r\npragma solidity ^0.5.0;\r\n\r\ncontract DappToken{\r\n    uint256 public totalSupply;\r\n\r\n    // Constructor\r\n    //function DappToken() public {     // older way of defining cunstructor\r\n    constructor () public {\r\n        totalSupply = 1000000;      //state variable    \r\n    }\r\n\r\n    // Set the tockens up\r\n    // Read total no tokens\r\n\r\n}",
  "sourcePath": "D:/blockchain/source_code/crypto_eth/contracts/DappToken.sol",
  "compiler": {
    "name": "solc",
    "version": "0.5.0+commit.1d4f565a.Emscripten.clang"
  },
  "schemaVersion": "3.0.1",
  "updatedAt": "2019-01-09T07:20:10.224Z",
  "devdoc": {
    "methods": {}
  },
  "userdoc": {
    "methods": {}
  }
}